:03000000020A27CA
:0C0A2700787FE4F6D8FD7581210208F606
:100A110000C000C000F900A400B00099009200825B
:060A210000F800800090C7
:0F09E200E52125E0240AF808E6F5A0AF09AE08E4
:1009F100E4FDFCC3ED9FEC9E5015E4FBFA0BBB003C
:0F0A0100010AEB647B4A70F50DBD00010C80E427
:010A100022C3
:1008F6007508037509E4780A7C007D007BFF7A0A97
:1009060079117E007F161208D07580FF75A0FF75DD
:1009160090FF5390FD5390FE439004900001AF82E8
:10092600EF25E0240AF808E6F58075200075210A0F
:100936001209E2E521152170021520D3E521940064
:10094600E520940050EAE582158270021583E5825F
:10095600458370CA5390FB439002900001AF82EF2B
:1009660025E0240AF808E6F58075200075210A12AC
:1009760009E2E521152170021520D3E5219400E551
:1009860020940050EAE582158270021583E58245BF
:100996008370CA5390FD439001900002D3E5829480
:1009A60000E58394005003020918AF82EF25E02486
:1009B6000AF808E6F58075200075210A1209E2E5B5
:1009C60021152170021520D3E5219400E52094001D
:0C09D60050EAE582158270C4158380C0D1
:10080000E709F608DFFA8046E709F208DFFA803EDA
:1008100088828C83E709F0A3DFFA8032E309F608C7
:10082000DFFA8078E309F208DFFA807088828C832F
:10083000E309F0A3DFFA806489828A83E0A3F608E3
:10084000DFFA805889828A83E0A3F208DFFA804CBD
:1008500080D280FA80C680D4806980F28033801094
:1008600080A680EA809A80A880DA80E280CA8033FD
:1008700089828A83ECFAE493A3C8C582C8CCC58375
:10088000CCF0A3C8C582C8CCC583CCDFE9DEE78045
:100890000D89828A83E493A3F608DFF9ECFAA9F0C4
:1008A000EDFB2289828A83ECFAE0A3C8C582C8CC1A
:1008B000C583CCF0A3C8C582C8CCC583CCDFEADE33
:1008C000E880DB89828A83E493A3F208DFF980CC95
:1008D00088F0EF60010E4E60C388F0ED2402B4048E
:1008E0000050B9F582EB2402B4040050AF23234535
:0608F00082239008507302
:00000001FF
